:020000040000FA
:10000000831600308800EC3089000E309F00831288
:10001000B5204D30C9204F30C9205430C9204F3051
:10002000C9202D30C9204930C9205330C92045305E
:10003000C9204E30C9205430C9204130C9200800A1
:10004000B5205630C9204130C9204C30C9204F302E
:10005000C9205230C9202D30C9205230C920243047
:10006000C9203530C9200800B5205630C92041309C
:10007000C9204C30C9204F30C9205230C9202D3002
:10008000C9205230C9202430C9203730C920080087
:10009000B5205630C9204130C9204C30C9204F30DE
:1000A000C9205230C9202D30C9205230C9202430F7
:1000B000C9203130C9203030C9200800B520423075
:1000C000C9204530C9204D30C9202D30C9205630B7
:1000D000C9204930C9204E30C9204430C9204F3092
:1000E000C9200800B5204630C9204130C9204C3015
:1000F000C9205430C9204130C9202D30C920523088
:10010000C9202430C9200800B5205430C9205230FD
:10011000C9204F30C9204330C9204F30C9202D306D
:10012000C9205230C9202430C9200800B5204330EE
:10013000C9204130C9204E30C9204330C920453044
:10014000C9204C30C9204130C9202D30C920413050
:10015000C9204230C9204530C9205230C92054300E
:10016000C9204130C9200800B4283830C3203830B5
:10017000C3203830C3200C30C3200630C3200130E8
:10018000C320D42008000910880089148910CF20CA
:1001900008000914880089148910CF20080026302F
:1001A000A000A00BD12808004030A100CF20A10B57
:0401B000D628080045
:0401B40000340034DF
:02400E00BA3FB7
:00000001FF
