:020000040000FA
:1000000083120030A000A100A200A300A600A5005A
:10001000B830A900BF30AA00C530AB00C330AC0077
:10002000CB30AD008316FE308600E0308900003012
:10003000870000308800FF30850002309F000730C5
:1000400081008312313090006B21D62009110712F4
:100050008711061051309F0088211F151F192E2867
:100060001E08A400AE002908A4025720031839284E
:100070002A28831600308800831203102430BA3CEB
:100080005720031844285E292430C13C5720031808
:1000900064284A28C330A402572003185F28502838
:1000A000CB30A402572003185A2857084A282E0894
:1000B000A40008007321C1201030A3006928732117
:1000C000AE200730A300692873219B200530A300D0
:1000D000692808186F286C28881873286928023046
:1000E000A0003A2177280530A0003A217728203057
:1000F000A107A302A2000030A000A2000318522909
:100100008128031C69285E294D307D214F307D21D7
:1001100054307D214F307D2120307D2149307D219B
:1001200053307D2145307D214E307D2154307D215D
:1001300041307D21080056307D2141307D214C30F9
:100140007D214F307D2152307D2120307D21523064
:100150007D2124307D2135307D21080056307D21E0
:1001600041307D214C307D214F307D2152307D2129
:1001700020307D2152307D2124307D2137307D217A
:10018000080056307D2141307D214C307D214F309B
:100190007D2152307D2120307D2152307D2124303F
:1001A0007D2131307D2130307D21080020307D21BE
:1001B00020307D2120307D2142307D2145307D2140
:1001C0004D307D2120307D2156307D2149307D21EB
:1001D0004E307D2144307D214F307D210800463056
:1001E0007D2141307D214C307D2154307D214130B5
:1001F0007D2120307D2152307D2124307D21080059
:1002000054307D2152307D214F307D2143307D217E
:100210004F307D2120307D2152307D2124307D21C1
:10022000080043307D2141307D214E307D21433017
:100230007D2145307D214C307D2141307D21203094
:100240007D2141307D2142307D2145307D2152305C
:100250007D2154307D2141307D2108002030A700D0
:10026000603081000B1D3229603081000B11A70B1B
:10027000322908004030A700603081000B1D3E2964
:10028000603081000B11A70B3E2908008030A700C9
:10029000603081000B1D4A29603081000B11A70BD3
:1002A0004A29080087152E2187112E2107162E2195
:1002B0000712A20F5229732111215E2909157321FA
:1002C0001121462109117321D6202A2806143A212A
:1002D00006103A21080038307721383077210C3069
:1002E0007721063077210130772188210800091015
:1002F0008800891489108321080009148800891452
:100300008910832108002630A700A70B8529080043
:0C0310004030A8008321A80B8A290800B7
:04031C000034003475
:02400E00BA3FB7
:00000001FF
