:020000040000FA
:1000000083120030A000A100A200A300A600A5005A
:100010008430A9009430AA009830AB000230AC00C4
:100020001530AD008316FE308600E03089000030C8
:10003000870000308800FF30850002309F000730C5
:1000400081008312313090005D21CD203D210911C6
:10005000071287110610831602309F008312513059
:100060009F007A211F151F193328831680008800EE
:1000700083121E08A40088003C28031C57282B2844
:1000800083168000880065217B2045288312243058
:10009000AD02031857284C282430AC0203185C2802
:1000A00051282430AB0203186128562855296521B0
:1000B000B8201030A30066286521A5200730A300D2
:1000C0006628652192200530A300662808186C2850
:1000D00069288818702866280230A0003121742809
:1000E0000530A000312174282030213E233CA2009D
:1000F0000030A00055294D306F214F306F21543012
:100100006F214F306F2120306F2149306F215330E4
:100110006F2145306F214E306F2154306F214130B7
:100120006F21080056306F2141306F214C306F2114
:100130004F306F2152306F2120306F2152306F21AC
:1001400024306F2135306F21080056306F21413047
:100150006F214C306F214F306F2152306F21203092
:100160006F2152306F2124306F2137306F2108000A
:1001700056306F2141306F214C306F214F306F214D
:1001800052306F2120306F2152306F2124306F2187
:1001900031306F2130306F21080020306F21203046
:1001A0006F2120306F2142306F2145306F214D305B
:1001B0006F2120306F2156306F2149306F214E3032
:1001C0006F2144306F214F306F21080046306F217E
:1001D00041306F214C306F2154306F2141306F21FD
:1001E00020306F2152306F2124306F2108005430AD
:1001F0006F2152306F214F306F2143306F214F30CC
:100200006F2120306F2152306F2124306F21080080
:1002100043306F2141306F214E306F2143306F21C9
:1002200045306F214C306F2141306F2120306F21DC
:1002300041306F2142306F2145306F2152306F21A4
:1002400054306F2141306F2108002030A70060300A
:1002500081000B1D2929603081000B11A70B292972
:1002600008004030A700603081000B1D3529603048
:1002700081000B11A70B352908008030A7006030E2
:1002800081000B1D4129603081000B11A70B412912
:10029000080087152521871125210716252107121A
:1002A000A20B492965210821552909156521082135
:1002B0003D2109116521CD202B28383069213830A6
:1002C00069210C30692106306921013069217A21C8
:1002D0000800091088008914891075210800091484
:1002E000880089148910752108002630A700A70B03
:1002F000772908004030A8007521A80B7C29080048
:040300000034003491
:02400E00BA3FB7
:00000001FF
