:020000040000FA
:1000000083120030A000A100A200A300A600A5005A
:10001000B830A900BF30AA00C530AB00C330AC0077
:10002000CB30AD008316FE308600E0308900003012
:10003000870000308800FF30850002309F000730C5
:1000400081008312313090005B21C6200911071214
:100050008711061051309F0078211F1583121F153C
:100060001F1930281E08AF00B4302F021E21031CB8
:100070002E28B8302F02031C4E29BF302F02031C3C
:100080005428C3302F02031C4F28CB302F02031CEF
:100090004A282E286321B1201030A300592863215B
:1000A0009E200730A300592863218B200530A30030
:1000B000592808185F285C288818632859280230B6
:1000C000A0002A2167280530A0002A2167282030B7
:1000D000A107A302A2000030A000A2000318422939
:1000E0007128031C59284E294D306D214F306D2148
:1000F00054306D214F306D2120306D2149306D21FC
:1001000053306D2145306D214E306D2154306D21BD
:1001100041306D21080056306D2141306D214C3049
:100120006D214F306D2152306D2120306D215230C4
:100130006D2124306D2135306D21080056306D2140
:1001400041306D214C306D214F306D2152306D2189
:1001500020306D2152306D2124306D2137306D21DA
:10016000080056306D2141306D214C306D214F30EB
:100170006D2152306D2120306D2152306D2124309F
:100180006D2131306D2130306D21080020306D211E
:1001900020306D2120306D2142306D2145306D21A0
:1001A0004D306D2120306D2156306D2149306D214B
:1001B0004E306D2144306D214F306D2108004630A6
:1001C0006D2141306D214C306D2154306D21413015
:1001D0006D2120306D2152306D2124306D210800B9
:1001E00054306D2152306D214F306D2143306D21DF
:1001F0004F306D2120306D2152306D2124306D2122
:10020000080043306D2141306D214E306D21433067
:100210006D2145306D214C306D2141306D212030F4
:100220006D2141306D2142306D2145306D215230BC
:100230006D2154306D2141306D2108002030A70020
:10024000603081000B1D2229603081000B11A70B4B
:10025000222908004030A700603081000B1D2E29A4
:10026000603081000B11A70B2E2908008030A700F9
:10027000603081000B1D3A29603081000B11A70B03
:100280003A29080087151E2187111E2107161E21F5
:100290000712A20F4229632101214E29091563216A
:1002A0000121362109116321C6202A2806142A219A
:1002B00006102A21080038306721383067210C30B9
:1002C0006721063067210130672178210800091075
:1002D0008800891489107321080009148800891482
:1002E0008910732108002630A700A70B7529080084
:0C02F0004030A8007321A80B7A290800F8
:0402FC000034003496
:02400E00BA3FB7
:00000001FF
