:020000040000FA
:10000000831600308800EC3089000E309F000730E6
:100010008100831231309000D0206820C420DA2083
:1000200012201128D0204D30E4204F30E4205430ED
:10003000E4204F30E4202030E4204930E4205330E5
:10004000E4204530E4204E30E4205430E4204130B8
:10005000E4200800D0205630E4204130E4204C3029
:10006000E4204F30E4205230E4202030E4205230AD
:10007000E4202430E4203530E4200800D02056303D
:10008000E4204130E4204C30E4204F30E420523072
:10009000E4202030E4205230E4202430E4203730C3
:1000A000E4200800D0205630E4204130E4204C30D9
:1000B000E4204F30E4205230E4202030E42052305D
:1000C000E4202430E4203130E4203030E420080003
:1000D000D0202030E4202030E4202030E4204230C2
:1000E000E4204530E4204D30E4202030E420563038
:1000F000E4204930E4204E30E4204430E4204F3006
:10010000E4200800D0204630E4204130E4204C3088
:10011000E4205430E4204130E4202030E420523008
:10012000E4202430E4200800D0205430E420523071
:10013000E4204F30E4204330E4204F30E4202030EE
:10014000E4205230E4202430E4200800D020433062
:10015000E4204130E4204E30E4204330E4204530B8
:10016000E4204C30E4204130E4202030E4204130D1
:10017000E4204230E4204530E4205230E420543082
:10018000E4204130E42008002030A00060308100ED
:100190000B1DC828603081000B11A00BC828080077
:1001A0003830DE203830DE203830DE200C30DE20E3
:1001B0000630DE200130DE20EF2008000910880024
:1001C00089148910EA20080009148800891489100C
:1001D000EA2008002630A000A00BEC2808004030E0
:0A01E000A100EA20A10BF12808009D
:0401EA0000340034A9
:02400E00BA3FB7
:00000001FF
