:020000040000FA
:1000000083120030A000A100A200A300A600A5005A
:10001000B830A900BF30AA00C830AB00D230AC0065
:10002000DC30AD008316FE308600E0308900003001
:10003000870000308800FF30850002309F000730C5
:1000400081008312313090005C21C7200911071212
:100050008711061051309F0079211F151F192E2876
:100060001E08A4002908A402031837282A2883168A
:100070000030880083122430AD0203184B2840283A
:100080002430AC020318502845282430AB02031852
:1000900055284A284F296421B2201030A3005A283D
:1000A00064219F200730A3005A2864218C2005304A
:1000B000A3005A28081860285D28881864285A2840
:1000C0000230A0002B2168280530A0002B216828D1
:1000D0002030A107A302A2000030A000A200031854
:1000E00043297228031C5A284F294D306E214F3066
:1000F0006E2154306E214F306E2120306E214930F8
:100100006E2153306E2145306E214E306E215430B9
:100110006E2141306E21080056306E2141306E2133
:100120004C306E214F306E2152306E2120306E21C6
:1001300052306E2124306E2135306E210800563049
:100140006E2141306E214C306E214F306E21523085
:100150006E2120306E2152306E2124306E213730D6
:100160006E21080056306E2141306E214C306E21D8
:100170004F306E2152306E2120306E2152306E2170
:1001800024306E2131306E2130306E210800203055
:100190006E2120306E2120306E2142306E2145309C
:1001A0006E214D306E2120306E2156306E21493047
:1001B0006E214E306E2144306E214F306E2108008A
:1001C00046306E2141306E214C306E2154306E210C
:1001D00041306E2120306E2152306E2124306E214C
:1001E000080054306E2152306E214F306E21433062
:1001F0006E214F306E2120306E2152306E2124301E
:100200006E21080043306E2141306E214E306E2148
:1002100043306E2145306E214C306E2141306E21CD
:1002200020306E2141306E2142306E2145306E21EA
:1002300052306E2154306E2141306E210800203042
:10024000A700603081000B1D2329603081000B1155
:10025000A70B232908004030A700603081000B1D48
:100260002F29603081000B11A70B2F290800803047
:10027000A700603081000B1D3B29603081000B110D
:10028000A70B3B29080087151F2187111F2107167F
:100290001F210712A20F4329642102214F290915AA
:1002A00064210221372109116421C7202A2806145C
:1002B0002B2106102B2108003830682138306821A6
:1002C0000C3068210630682101306821792108004E
:1002D0000910880089148910742108000914880005
:1002E00089148910742108002630A700A70B7629ED
:0E02F00008004030A8007421A80B7B290800EC
:0202FE000034CA
:020300000034C7
:02400E00BA3FB7
:00000001FF
