:020000040000FA
:1000000083160030A000A100A200A300A600A50056
:1000100000308800E0308600E0308900E030870062
:10002000E030EF308500EF309F0007308100831211
:1000300031309000262195200911071287110610F2
:10004000EB2030213F2003211A210321212195207B
:10005000282883168100880003309F0083121F1513
:100060001F1930281E08A4002430953CA600031850
:100070003A2829281A2908183B2808183B2826213D
:100080004D303A214F303A2154303A214F303A2105
:1000900020303A2149303A2153303A2145303A2133
:1000A0004E303A2154303A2141303A21080026217D
:1000B00056303A2141303A214C303A214F303A21E2
:1000C00052303A2120303A2152303A2124303A211C
:1000D00035303A210800262156303A2141303A2164
:1000E0004C303A214F303A2152303A2120303A21D7
:1000F00052303A2124303A2137303A210800262163
:1001000056303A2141303A214C303A214F303A2191
:1001100052303A2120303A2152303A2124303A21CB
:1001200031303A2130303A210800262142303A213C
:1001300045303A214D303A2120303A2156303A218B
:1001400049303A214E303A2144303A214F303A2159
:100150000800262146303A2141303A214C303A21DC
:1001600054303A2141303A2120303A2152303A215C
:1001700024303A210800262154303A2152303A21C5
:100180004F303A2143303A214F303A2120303A2142
:1001900052303A2124303A210800262143303A21B6
:1001A00041303A214E303A2143303A2145303A210C
:1001B0004C303A2141303A2120303A2141303A2125
:1001C00042303A2145303A2152303A2154303A21D6
:1001D00041303A2108002030A700603081000B1D1B
:1001E000EF28603081000B11A70BEF28080040308A
:1001F000A700603081000B1DFB28603081000B11CF
:10020000A70BFB2808008030A700603081000B1D81
:100210000729603081000B11A70B072908008715FB
:10022000EB208711EB200716EB200712A20B3021E1
:10023000CD201A29091530212621CD20EB20EB20D5
:10024000EB20091130212621952020283830342137
:1002500038303421383034210C3034210630342108
:1002600001303421452108000910880089148910C3
:1002700040210800091488008914891040210800D1
:100280002630A700A70B422908004030A8004021D3
:06029000A80B472908003D
:0402960000340034FC
:02400E00BA3FB7
:00000001FF
