:020000040000FA
:100000000030A000A100A200A300A600A500831656
:10001000E0308600E030890000308700FF30850046
:1000200004309F0007308100831231309000552149
:10003000BE2009110712871106108316830088005D
:1000400003309F0083121F151F1924281E08A400C7
:100050002430953C03181D282D2883168000880025
:1000600083122430253C0318412836282430213CB3
:10007000031847283B282430093C03184D28402802
:100080004B295F215521A8201030A30053285F2160
:10009000552194200730A30053285F21552180204B
:1000A0000530A300532808185928562888185D28B9
:1000B00053280230A000262161280530A000262107
:1000C00061282030213E233CA2000030A0004B29B3
:1000D00055214D3069214F306921543069214F300D
:1000E0006921203069214930692153306921453027
:1000F00069214E306921543069214130692108005D
:10010000552156306921413069214C3069214F30E9
:10011000692152306921203069215230692124300F
:100120006921353069210800552156306921413057
:1001300069214C3069214F306921523069212030CA
:100140006921523069212430692137306921080042
:10015000552156306921413069214C3069214F3099
:1001600069215230692120306921523069212430BF
:100170006921313069213030692108005521203052
:1001800069212030692120306921423069214530C0
:1001900069214D306921203069215630692149306B
:1001A00069214E306921443069214F3069210800AE
:1001B000552146306921413069214C306921543044
:1001C0006921413069212030692152306921243070
:1001D00069210800552154306921523069214F307E
:1001E0006921433069214F30692120306921523023
:1001F00069212430692108005521433069214130AB
:1002000069214E30692143306921453069214C30E4
:100210006921413069212030692141306921423012
:1002200069214530692152306921543069214130BA
:10023000692108002030A700603081000B1D1E29B5
:10024000603081000B11A70B1E2908004030A70069
:10025000603081000B1D2A29603081000B11A70B33
:100260002A2908008030A700603081000B1D362944
:10027000603081000B11A70B3629080087151A2161
:1002800087111A2107161A210712A20B3E295F2196
:100290005521FC204B2909155F215521FC203221D5
:1002A00009115F215521BE201D28383063213830C7
:1002B0006321383063210C30632106306321013023
:1002C00063217421080009108800891489106F21A6
:1002D000080009148800891489106F21080026304D
:1002E000A700A70B712908004030A8006F21A80BB8
:0402F0007629080063
:0402F400003400349E
:02400E00BA3FB7
:00000001FF
