:020000040000FA
:100000000030A000A100A200A300A600A500831656
:1000100000308600073089000730870007309F00D6
:1000200007308100831231309000FF2086200911B3
:10003000071287110610831603309F0083121F15C5
:100040001F1920281E08A4002430953CA600031880
:100050002A281B28F32808182B2808182B282F28B3
:10006000FF204D3013214F301321543013214F30D6
:1000700013212030132149301321533013214530EF
:1000800013214E3013215430132141301321080025
:10009000FF2056301321413013214C3013214F30B3
:1000A00013215230132120301321523013212430D8
:1000B0001321353013210800FF2056301321413021
:1000C00013214C3013214F30132152301321203093
:1000D000132152301321243013213730132108000B
:1000E000FF2056301321413013214C3013214F3063
:1000F0001321523013212030132152301321243088
:10010000132131301321303013210800FF204230F9
:100110001321453013214D30132120301321563047
:100120001321493013214E301321443013214F3015
:1001300013210800FF2046301321413013214C3099
:100140001321543013214130132120301321523018
:100150001321243013210800FF2054301321523082
:1001600013214F301321433013214F3013212030FE
:10017000132152301321243013210800FF20433073
:100180001321413013214E301321433013214530C8
:1001900013214C30132141301321203013214130E1
:1001A0001321423013214530132152301321543092
:1001B00013214130132108002030A7006030810056
:1001C0000B1DE028603081000B11A70BE028080010
:1001D0008715DC208711DC200716DC200712A20B14
:1001E0000921BE20F32809150921FF20BE20DC20AB
:1001F000DC20DC2009110921FF2086201B28383053
:100200000D2138300D2138300D210C300D210630F4
:100210000D2101300D211E210800091088008914CC
:1002200089101921080009148800891489101921DE
:1002300008002630A700A70B1B2908004030A800A3
:080240001921A80B2029080078
:04024800003400344A
:02400E00BA3FB7
:00000001FF
