:020000040000FA
:100000000030A000A100A200A300A600A500831656
:1000100000308600073089000730870007309F00D6
:1000200007308100831231309000002187200911B0
:10003000071287110610831603309F0083121F15C5
:100040001F1920281E08A4002430953CA600031880
:100050002A281B283120091508182C2808182C28B4
:10006000302800214D3014214F30142154301421F8
:100070004F301421203014214930142153301421E1
:10008000453014214E3014215430142141301421B4
:100090000800002156301421413014214C30142125
:1000A0004F301421523014212030142152301421A9
:1000B0002430142135301421080000215630142139
:1000C000413014214C3014214F301421523014216E
:1000D00020301421523014212430142137301421BF
:1000E0000800002156301421413014214C301421D5
:1000F0004F30142152301421203014215230142159
:100100002430142131301421303014210800002112
:1001100042301421453014214D3014212030142157
:1001200056301421493014214E301421443014210A
:100130004F30142108000021463014214130142191
:100140004C3014215430142141301421203014211A
:10015000523014212430142108000021543014217D
:10016000523014214F301421433014214F301421C8
:100170002030142152301421243014210800002191
:1001800043301421413014214E30142143301421C6
:10019000453014214C3014214130142120301421D9
:1001A00041301421423014214530142152301421A1
:1001B000543014214130142108002030A700603051
:1001C00081000B1DE128603081000B11A70BE12895
:1001D00008008715DD208711DD200716DD200712B6
:1001E000A20B0A21BF20F42809150A210021BF20F3
:1001F000DD20DD20DD2009110A21002187201B28B8
:1002000038300E2138300E2138300E210C300E21BE
:1002100006300E2101300E211F2108000910880030
:10022000891489101A21080009148800891489107A
:100230001A2108002630A700A70B1C29080040300F
:0A024000A8001A21A80B21290800CC
:04024A000034003448
:02400E00BA3FB7
:00000001FF
