:020000040000FA
:100000000030A000A100A200A300A600A500831656
:100010000030860007308900073087000730013044
:100020008830FF308530FF309F0007308100831219
:100030003130900007218E20091107128711061018
:1000400083168100880003309F0083121F151F193B
:1000500027281E08A4002430953CA6000318312848
:1000600020283128FB280818332808183328372877
:1000700007214D301B214F301B2154301B214F30A5
:100080001B2120301B2149301B2153301B214530BF
:100090001B214E301B2154301B2141301B210800F5
:1000A000072156301B2141301B214C301B214F3082
:1000B0001B2152301B2120301B2152301B212430A8
:1000C0001B2135301B210800072156301B214130F0
:1000D0001B214C301B214F301B2152301B21203063
:1000E0001B2152301B2124301B2137301B210800DB
:1000F000072156301B2141301B214C301B214F3032
:100100001B2152301B2120301B2152301B21243057
:100110001B2131301B2130301B21080007214230C8
:100120001B2145301B214D301B2120301B21563017
:100130001B2149301B214E301B2144301B214F30E5
:100140001B210800072146301B2141301B214C3068
:100150001B2154301B2141301B2120301B215230E8
:100160001B2124301B210800072154301B21523051
:100170001B214F301B2143301B214F301B212030CE
:100180001B2152301B2124301B2108000721433042
:100190001B2141301B214E301B2143301B21453098
:1001A0001B214C301B2141301B2120301B214130B1
:1001B0001B2142301B2145301B2152301B21543062
:1001C0001B2141301B2108002030A7006030810036
:1001D0000B1DE828603081000B11A70BE8280800F0
:1001E0008715E4208711E4200716E4200712A20BEC
:1001F0001121C620FB28091511210721C620E42062
:10020000E420E4200911112107218E202028383014
:10021000152138301521383015210C3015210630C4
:1002200015210130152126210800091088008914A4
:1002300089102121080009148800891489102121BE
:1002400008002630A700A70B232908004030A8008B
:080250002121A80B2829080058
:04025800003400343A
:02400E00BA3FB7
:00000001FF
