:020000040000FA
:1000000083120030A000A100A200A300A600A5005A
:100010008430A9009430AA009830AB000230AC00C4
:100020001530AD008316FE308600E03089000030C8
:10003000870000308800FF30850002309F000730C5
:1000400081008312313090005F21CF203F210911C0
:10005000071287110610831602309F008312513059
:100060009F007C211F151F193328831680008800EC
:1000700083121E08A4002908A4002408A402031C5B
:1000800059282B2883168000880067217D20472867
:1000900083122430AD02031859284E282430AC02B4
:1000A00003185E2853282430AB020318632858280D
:1000B00057296721BA201030A30068286721A7209C
:1000C0000730A3006828672194200530A300682822
:1000D00008186E286B288818722868280230A0003B
:1000E000332176280530A000332176282030213EA8
:1000F000233CA2000030A00057294D3071214F3021
:100100007121543071214F307121203071214930DB
:10011000712153307121453071214E30712154309D
:100120007121413071210800563071214130712117
:100130004C3071214F3071215230712120307121AA
:100140005230712124307121353071210800563030
:100150007121413071214C3071214F307121523069
:1001600071212030712152307121243071213730BA
:100170007121080056307121413071214C307121BC
:100180004F30712152307121203071215230712154
:10019000243071213130712130307121080020303C
:1001A0007121203071212030712142307121453080
:1001B00071214D307121203071215630712149302B
:1001C00071214E307121443071214F30712108006E
:1001D00046307121413071214C30712154307121F0
:1001E0004130712120307121523071212430712130
:1001F000080054307121523071214F307121433049
:1002000071214F3071212030712152307121243001
:100210007121080043307121413071214E3071212C
:1002200043307121453071214C30712141307121B1
:1002300020307121413071214230712145307121CE
:100240005230712154307121413071210800203029
:10025000A700603081000B1D2B29603081000B113D
:10026000A70B2B2908004030A700603081000B1D30
:100270003729603081000B11A70B37290800803027
:10028000A700603081000B1D4329603081000B11F5
:10029000A70B432908008715272187112721071657
:1002A00027210712A20B4B2967210A21572909157B
:1002B00067210A213F2109116721CF202B283830DF
:1002C0006B2138306B210C306B2106306B210130F3
:1002D0006B217C210800091088008914891077217E
:1002E0000800091488008914891077210800263035
:1002F000A700A70B792908004030A8007721A80B98
:040300007E2908004A
:04030400003400348D
:02400E00BA3FB7
:00000001FF
