:020000040000FA
:1000000083120030A000A100A200A300A600A5005A
:100010009230A9000530AA001730AB002530AC00A3
:100020003530AD008316FE308600E03089000030A8
:10003000870000308800FF30850002309F000730C5
:1000400081008312313090006721D22042210911B2
:100050000712871106108601831602309F00831253
:1000600051309F0084211F151F19342883168000EA
:10007000880083124030A4002408A90203185628DF
:100080002C28831600308800562883122430AD02B5
:10009000031856284B282430AC0203185B2850283C
:1000A0002430AB020318602855285A296F21BD203F
:1000B0001030A30065286F21AA200730A30065280F
:1000C0006F2197200530A300652808186B28682841
:1000D00088186F2865280230A00036217328053063
:1000E000A000362173282030A107A302A20000300F
:1000F000A000A20003184E297D28031C65285A2958
:100100004D3079214F307921543079214F30792188
:1001100020307921493079215330792145307921B6
:100120004E30792154307921413079210800563000
:100130007921413079214C3079214F307921523069
:1001400079212030792152307921243079213530BC
:100150007921080056307921413079214C307921BC
:100160004F30792152307921203079215230792154
:1001700024307921373079210800563079214130F7
:1001800079214C3079214F3079215230792120303A
:100190007921523079212430792131307921303060
:1001A00079210800203079212030792120307921EF
:1001B00042307921453079214D3079212030792123
:1001C00056307921493079214E30792144307921D6
:1001D0004F307921080046307921413079214C3067
:1001E00079215430792141307921203079215230E0
:1001F0007921243079210800543079215230792135
:100200004F307921433079214F30792120307921C5
:10021000523079212430792108004330792141304E
:1002200079214E30792143307921453079214C3084
:1002300079214130792120307921413079214230B2
:10024000792145307921523079215430792141305A
:10025000792108002030A700603081000B1D2E2975
:10026000603081000B11A70B2E2908004030A70039
:10027000603081000B1D3A29603081000B11A70B03
:100280003A2908008030A700603081000B1D462904
:10029000603081000B11A70B4629080087152A2121
:1002A00087112A2107162A210712A20F4E296F2132
:1002B0000D215A2909156F210D21422109116F21A4
:1002C000D2202C280614362106103621080038309A
:1002D0007321383073210C307321063073210130C3
:1002E00073218421080009108800891489107F2156
:1002F000080009148800891489107F21080026301D
:10030000A700A70B812908004030A8007F21A80B77
:040310008629080032
:04031400003400347D
:02400E00BA3FB7
:00000001FF
