:020000040000FA
:1000000083120030A000A100A200A3008316FE30DE
:100010008600E03089000030870000308800FF3023
:10002000850002309F00073081008312313090003C
:10003000A022222109110712871106100030A10009
:1000400051309F00BD221F151F151F1925281E089E
:10005000A400B43024022122031C2428BE30240230
:10006000031C3F28C6302402031C5228CD30240232
:10007000031C4A28FD302402031C42282428A822FD
:10008000C420592AA822D0212D22A82209210A30D1
:10009000A3005A28A822B1212D22A822F22007303D
:1000A000A3005A28A82292212D22A822DB20053065
:1000B000A3005A2883160330880083120030A00062
:1000C00006101830AA000818A3288818A728152297
:1000D0000818A3288818A7281522AA0B63287028B7
:1000E0000430AB000818A3288818A7280614152286
:1000F0000818A3288818A72815220818A3288818E4
:10010000A72815220818A3288818A7281522081838
:10011000A3288818A728061015220818A3288818CD
:10012000A72815220818A3288818A7281522081818
:10013000A3288818A72815220818A3288818A728F4
:10014000AB0B7228C32A0230A0002D22AB28053049
:10015000A0002D22AB2820082107A100230821029E
:10016000A2000319BD280318452AB62883160030BB
:1001700088008312A8223B215A2883160030880069
:100180008312A822EF21592A4D30B2224F30B222D9
:100190005430B2224F30B2222030B2224930B22243
:1001A0005330B2224530B2224E30B2225430B22205
:1001B0004130B22208005430B2224130B2225230D3
:1001C000B2224930B2224630B2224130B22220302F
:1001D000B2225230B2222430B2222030B222353044
:1001E000B22208005430B2224130B2225230B22240
:1001F0004930B2224630B2224130B2222030B222FF
:100200005230B2222430B2222030B2223730B22211
:1002100008005430B2224130B2225230B22249306A
:10022000B2224630B2224130B2222030B2225230C5
:10023000B2222430B2222030B2223130B222303009
:10024000B22208002030B2222030B2222030B22266
:100250004230B2224530B2224D30B2222030B2229A
:100260005630B2224930B2224E30B2224430B2224D
:100270004F30B22208005630B2224130B2224C3008
:10028000B2224F30B2225230B2222030B22250304D
:10029000B2224130B2224730B2224F30B222203057
:1002A000B2225230B2222430B2222030B2222108AF
:1002B000A90006222808B22208005430B222523087
:1002C000B2224F30B2224330B2224F30B22220301D
:1002D000B2225230B2222430B2222030B22222087E
:1002E000A90006222808B22208004330B222413079
:1002F000B2224E30B2224330B2224530B2224C30CC
:10030000B2224130B2222030B2224130B2224230F9
:10031000B2224530B2225230B2225430B2224130A1
:10032000B22208005630B2224530B2224930B22201
:100330004330B2225530B2224C30B2223030B22299
:100340002030B2225030B2224130B2225330B22299
:100350005330B2224530B2224930B2224F30B2225D
:1003600008005630B2224530B2224930B222433022
:10037000B2225530B2224C30B2224F30B22220305D
:10038000B2223330B2222030B2224530B22249307C
:10039000B2225830B2224F30B2225330B22208007B
:1003A0005630B2224530B2224930B2224330B22216
:1003B0005530B2224C30B2224F30B2222030B2221D
:1003C0003430B2222030B2224530B2224930B2223B
:1003D0005830B2224F30B2225330B222080054308B
:1003E000B2224130B2225230B2224930B2224630DB
:1003F000B2224130B2222030B2225030B2224130FB
:10040000B2224730B2224130B2220800A701A8012F
:100410002908A8000A302802031C112AA800A70AEC
:100420000A2A3030A707A80708001030A50060305E
:1004300081000B1D192A603081000B11A50B192AB0
:1004400008002030A500603081000B1D252A603097
:1004500081000B11A50B252A08004030A500603053
:1004600081000B1D312A603081000B11A50B312A50
:1004700008008030A500603081000B1D3D2A6030EF
:1004800081000B11A50B3D2A08008316003088005F
:1004900083120610A822EF212122A8225D218715B0
:1004A0002122871121220716212207122122A20BC5
:1004B0004F2A831600308800FF3085008312061013
:1004C00021220915A82275211830AA001F151F190D
:1004D000672A1E08A400B4302402031C732A2122B8
:1004E000AA0B662A7C2A8316FF30850083123922E4
:1004F0000911A82222211D280430AB001F151F1945
:100500007F2A1E08A400B4302402031C732A061498
:100510002122B4302402031C732A2122B430240285
:10052000031C732A06102122B4302402031C732AF0
:100530002122B4302402031C732AAB0B7E2ADE2A4C
:100540003830AC223830AC220C30AC220630AC2231
:100550000130AC22BD2208000910880089148910DE
:10056000B82208000914880089148910B8220800EC
:100570002630A500A50BBA2A08004030A600B822F4
:10058000A60BBF2A080083160030850083121430A2
:10059000AC000818A3288818A7288516BD22851244
:1005A000BD22AC0BC92A0818A3288818A728152231
:1005B0000818A3288818A7281522C72A83160730E9
:1005C000850083121430AC001F151F19E52A85160B
:1005D000BD228512BD221E08A400B4302402031CD3
:0A05E000732AAC0BE42A2122E22A60
:0405EA0000340034A5
:02400E00BA3FB7
:00000001FF
