:020000040000FA
:1000000083120030A000A100A200A300A600A5005A
:100010009230A9000530AA001730AB002530AC00A3
:100020003530AD008316FE308600E03089000030A8
:10003000870000308800FF30850002309F000730C5
:1000400081008312313090005B21CB203B210911CC
:10005000071287110610831602309F008312513059
:100060009F0078211F151F193328831680008800F0
:1000700083124030A4002408A902031855285528EB
:10008000831600308800552883122430AD020318EF
:1000900055284A282430AC0203185A284F28243007
:1000A000AB0203185F28542853296321B62010306F
:1000B000A30064286321A3200730A30064286321E0
:1000C00090200530A300642808186A28672888183B
:1000D0006E2864280230A0002F2172280530A0006D
:1000E0002F2172282030213E233CA2000030A000A6
:1000F00053294D306D214F306D2154306D214F30DB
:100100006D2120306D2149306D2153306D214530F6
:100110006D214E306D2154306D2141306D2108002C
:1001200056306D2141306D214C306D214F306D21A5
:1001300052306D2120306D2152306D2124306D21DF
:1001400035306D21080056306D2141306D214C3025
:100150006D214F306D2152306D2120306D21523094
:100160006D2124306D2137306D21080056306D210E
:1001700041306D214C306D214F306D2152306D2159
:1001800020306D2152306D2124306D2131306D21B0
:1001900030306D21080020306D2120306D2120305D
:1001A0006D2142306D2145306D214D306D21203063
:1001B0006D2156306D2149306D214E306D21443016
:1001C0006D214F306D21080046306D2141306D2189
:1001D0004C306D2154306D2141306D2120306D2126
:1001E00052306D2124306D21080054306D21523081
:1001F0006D214F306D2143306D214F306D21203006
:100200006D2152306D2124306D21080043306D2165
:1002100041306D214E306D2143306D2145306D21CF
:100220004C306D2141306D2120306D2141306D21E8
:1002300042306D2145306D2152306D2154306D2199
:1002400041306D2108002030A700603081000B1D77
:100250002729603081000B11A70B272908004030A7
:10026000A700603081000B1D3329603081000B1125
:10027000A70B332908008030A700603081000B1DD8
:100280003F29603081000B11A70B3F29080087151B
:10029000232187112321071623210712A20B4729A7
:1002A0006321062153290915632106213B210911E8
:1002B0006321CB202B2838306721383067210C3060
:1002C0006721063067210130672178210800091075
:1002D0008800891489107321080009148800891482
:1002E0008910732108002630A700A70B7529080084
:0C02F0004030A8007321A80B7A290800F8
:0402FC000034003496
:02400E00BA3FB7
:00000001FF
